:100000000C9462000C948A000C948A000C948A0070
:100010000C948A000C948A000C948A000C948A0038
:100020000C948A000C948A000C948A000C9483042B
:100030000C948A000C948A000C948A000C948A0018
:100040000C9439040C948A000C9407040C94E1037A
:100050000C948A000C948A000C948A000C948A00F8
:100060000C948A000C948A000000000024002700F1
:100070002A0000000000250028002B0000000008D6
:10008000000201000003040700000000000000005F
:1000900000000000230026002900040404040404D6
:1000A0000404020202020202030303030303010227
:1000B00004081020408001020408102001020408F6
:1000C0001020840511241FBECFEFD8E0DEBFCDBFC6
:1000D00011E0A0E0B1E0E0E2F4E102C005900D9291
:1000E000AE31B107D9F722E0AEE1B1E001C01D9217
:1000F000A730B207E1F710E0C2E6D0E004C02197D4
:10010000FE010E94080AC136D107C9F70E94BE0647
:100110000C940E0A0C9400008F929F92AF92BF92A3
:10012000FF920F931F93CF93DF93F09004022BE085
:100130002F1508F44CC02091060208E512E0021BBE
:10014000110927FD1395000F111F000F111F20919A
:100150000502C8E8D0E0C21BD10927FDD395CC0F1A
:10016000DD1FCC0FDD1F4E010D2E000CAA08BB08B1
:100170009801012E000C440B550B281939094A0926
:100180005B09DC010E94860824EB30E040E050E08F
:100190000E945C08820E931EA41EB51E8C169D063E
:1001A0002CF0E801801691060CF4E4012297CC0FA4
:1001B000DD1F2FB7F8948F2D90E0FC01EE0FFF1F8D
:1001C000E80FF91FE953FE4FD283C1832FBFDF91A0
:1001D000CF911F910F91FF90BF90AF909F908F9004
:1001E0000895AF92BF92CF92DF92EF92FF920F935A
:1001F0001F93CF93DF936C017B018B01040F151FBD
:10020000EB015E01AE18BF08C017D10759F0699124
:10021000D601ED91FC910190F081E02DC601099588
:10022000892B79F7C501DF91CF911F910F91FF9035
:10023000EF90DF90CF90BF90AF900895FC01538D69
:10024000448D252F30E0842F90E0821B930B5417B0
:1002500010F0CF96089501970895FC01918D828D3D
:10026000981761F0A28DAE0FBF2FB11D5D968C91D6
:10027000928D9F5F9F73928F90E008958FEF9FEF15
:100280000895FC01918D828D981731F0828DE80FD1
:10029000F11D858D90E008958FEF9FEF0895FC018B
:1002A000918D228D892F90E0805C9F4F821B910958
:1002B0008F73992708958AE291E00E944F0121E00F
:1002C000892B09F420E0822F089580E090E0892BAB
:1002D00029F00E945B0181110C9400000895FC013B
:1002E000A48DA80FB92FB11DA35ABF4F2C91848D97
:1002F00090E001968F739927848FA689B7892C93F4
:10030000A089B1898C91837080648C93938D848D46
:10031000981306C00288F389E02D80818F7D808349
:100320000895EF92FF920F931F93CF93DF93EC0109
:1003300081E0888F9B8D8C8D98131AC0E889F9898C
:10034000808185FF15C09FB7F894EE89FF8960838F
:10035000E889F98980818370806480839FBF81E010
:1003600090E0DF91CF911F910F91FF90EF90089552
:10037000F62E0B8D10E00F5F1F4F0F731127E02E2D
:100380008C8D8E110CC00FB607FCFACFE889F98965
:10039000808185FFF5CFCE010E946F01F1CFEB8DFB
:1003A000EC0FFD2FF11DE35AFF4FF0829FB7F89439
:1003B0000B8FEA89FB8980818062CFCFCF93DF9357
:1003C000EC01888D8823B9F0AA89BB89E889F9896D
:1003D0008C9185FD03C0808186FD0DC00FB607FCA2
:1003E000F7CF8C9185FFF2CF808185FFEDCFCE01D5
:1003F0000E946F01E9CFDF91CF91089590E0FC0159
:10040000E458FF4F2491FC01E255FF4F3491FC0169
:10041000E656FF4FE491EE23C9F0222339F0233052
:1004200001F1A8F4213019F1223029F1F0E0EE0FAA
:10043000FF1FEE58FF4FA591B4918FB7F894EC9140
:10044000611126C030953E233C938FBF089527301D
:10045000A9F02830C9F0243049F7809180008F7DC1
:1004600003C0809180008F7780938000DFCF84B5B8
:100470008F7784BDDBCF84B58F7DFBCF8091B000BB
:100480008F778093B000D2CF8091B0008F7DF9CF6D
:100490003E2BDACFCF93DF9390E0FC01E255FF4F84
:1004A000249186569F4FFC0184918823D1F090E0DF
:1004B000880F991FFC01E859FF4FA591B491FC01E9
:1004C000EE58FF4FC591D49161110EC09FB7F894BB
:1004D0008C91E22FE0958E238C932881E223E88390
:1004E0009FBFDF91CF9108958FB7F894EC91E22BE5
:1004F000EC938FBFF6CF1F93CF93DF93182FEB01B1
:1005000061E00E944A02209739F460E0812FDF9178
:10051000CF911F910C94FE01CF3FD10511F461E002
:10052000F5CFE12FF0E0E458FF4FE491E33031F1F3
:1005300040F4E130B1F0E230E1F0C038D1057CF7B1
:10054000E4CFE73029F1E83059F1E430B1F7809198
:100550008000806280938000D0938B00C0938A00DB
:1005600004C084B5806884BDC7BDDF91CF911F9161
:10057000089584B5806284BDC8BDF7CF80918000A6
:10058000806880938000D0938900C0938800EDCF6D
:100590008091B00080688093B000C093B300E5CF35
:1005A0008091B00080628093B000C093B400DDCF32
:1005B0008E50806480937C0080917A008064809368
:1005C0007A0080917A0086FDFCCF8091780090912E
:1005D000790008953FB7F894809124019091250106
:1005E000A0912601B091270126B5A89B05C02F3FF9
:1005F00019F00196A11DB11D3FBFBA2FA92F982F49
:100600008827BC01CD01620F711D811D911D42E043
:10061000660F771F881F991F4A95D1F708958F920B
:100620009F92AF92BF92CF92DF92EF92FF924B01D7
:100630005C010E94EA026B017C010E94EA026C19D3
:100640007D098E099F09683E734081059105A8F3D5
:1006500021E0821A9108A108B10888EEC80E83E053
:10066000D81EE11CF11C81149104A104B10429F7E6
:10067000FF90EF90DF90CF90BF90AF909F908F90C2
:100680000895089590E080E00895CF93DF93EC0102
:1006900060E08E810E94FE0161E08E810E94FE0179
:1006A00060E08E810E94FE018BE891E00197F1F7F6
:1006B000DF91CF910895CF92DF92EF92FF920F9347
:1006C0001F93CF93DF936C017C0187E0E80EF11C50
:1006D000D0E0C0E0062F10E0B8010C2E02C07595E6
:1006E00067950A94E2F76170F70181917F010E949A
:1006F000FE012196C430D10579F7C601DF91CF9173
:100700001F910F91FF90EF90DF90CF900C944503D5
:10071000CF92DF92EF92FF920F931F93CF93DF93CD
:10072000EC01F62E642F8C810E94FE018D818F3F9B
:1007300019F060E00E94FE010F2D10E08F8584FF0C
:1007400025C06E0187E0C80ED11CF12CE12CB80148
:100750000E2C02C0759567950A94E2F76170F60158
:1007600081916F010E94FE01FFEFEF1AFF0A88E0FE
:10077000E816F10461F7CE01DF91CF911F910F913F
:10078000FF90EF90DF90CF900C944503B80184E088
:10079000759567958A95E1F7CE010E945B036F2DF1
:1007A000CE01DF91CF911F910F91FF90EF90DF90DD
:1007B000CF900C945B0341E00E94880381E090E0BD
:1007C00008951F920F920FB60F9211242F933F930B
:1007D0004F935F936F937F938F939F93AF93BF9349
:1007E000EF93FF938AE291E00E946F01FF91EF91F6
:1007F000BF91AF919F918F917F916F915F914F9139
:100800003F912F910F900FBE0F901F9018951F9240
:100810000F920FB60F9211242F938F939F93EF9304
:10082000FF93E0913A01F0913B018081E09140011A
:10083000F091410182FD1BC09081809143018F5F47
:100840008F7320914401821741F0E0914301F0E061
:10085000E65DFE4F958F80934301FF91EF919F914D
:100860008F912F910F900FBE0F901F901895808140
:10087000F4CF1F920F920FB60F9211242F933F9334
:100880008F939F93AF93BF9380912001909121010B
:10089000A0912201B091230130911F0123E0230F89
:1008A0002D3758F50196A11DB11D20931F0180938E
:1008B000200190932101A0932201B0932301809104
:1008C000240190912501A0912601B0912701019664
:1008D000A11DB11D8093240190932501A0932601B1
:1008E000B0932701BF91AF919F918F913F912F912D
:1008F0000F900FBE0F901F90189526E8230F0296B9
:10090000A11DB11DD2CF1F920F920FB60F921124CD
:100910002F933F934F935F936F937F938F939F9307
:10092000AF93BF93CF93DF93EF93FF9380911E011B
:10093000C091EB01D0E087FF24C010928500109297
:10094000840080911E018F5F80931E0180911E01A3
:10095000082E000C990B8C179D0724F480911E0122
:100960008C30C4F18091840090918500049680348D
:100970009C4908F47AC08091840090918500049687
:1009800076C080911E01082E000C990B8C179D07D4
:10099000C4F6E0911E018E2FEE0F990BFC01EE0FB5
:1009A000FF1FE80FF91FE953FE4F808186FFC9CF73
:1009B000E0911E018E2FEE0F990BFC01EE0FFF1F31
:1009C000E80FF91FE953FE4F808160E08F730E94AA
:1009D000FE01B7CF2091840030918500E0911E0187
:1009E0008E2FEE0F990BFC01EE0FFF1FE80FF91F82
:1009F000E953FE4F81819281820F931F909389006A
:100A000080938800E0911E018E2FEE0F990BFC0160
:100A1000EE0FFF1FE80FF91FE953FE4F808186FF9D
:100A200011C0E0911E018E2FEE0F990BFC01EE0F0D
:100A3000FF1FE80FF91FE953FE4F808161E08F73BC
:100A40000E94FE01FF91EF91DF91CF91BF91AF9195
:100A50009F918F917F916F915F914F913F912F91D6
:100A60000F900FBE0F901F90189580E49CE9909313
:100A70008900809388008FEF80931E01E3CFCF928F
:100A8000DF92EF92FF920F931F93E82FF92F05C08B
:100A9000015011092109310961F1908196239417C0
:100AA000B9F305C0015011092109310911F19081F3
:100AB00096239413F7CFC12CD12CE12CF12C0AC032
:100AC0008FEFC81AD80AE80AF80A0C151D052E057A
:100AD0003F0579F080818623841791F36C2D7D2D5D
:100AE0008E2D9F2D1F910F91FF90EF90DF90CF9053
:100AF000089560E070E080E090E01F910F91FF901A
:100B0000EF90DF90CF900895CF93DF9310922D0157
:100B100010922C0188EE93E0A0E0B0E080932E01CB
:100B200090932F01A0933001B093310184E091E0C4
:100B300090932B0180932A0185EC90E090933701EC
:100B40008093360184EC90E09093390180933801D2
:100B500080EC90E090933B0180933A0181EC90E02F
:100B600090933D0180933C0182EC90E090933F0193
:100B700080933E0186EC90E0909341018093400188
:100B800010924301109244011092450110924601C7
:100B90008091EB018C3008F06DC091E0980F90933C
:100BA000EB018093040290E0FC01EE0FFF1FE80FC1
:100BB000F91FE953FE4F88EB9BE0928381831092EB
:100BC000EF011092EE0186E191E09093ED018093A8
:100BD000EC018CE08093F0018FEF8093F1018BE0CA
:100BE0008093F20185E08093F30184E08093F40127
:100BF00083E08093F50182E08093F6011092F70183
:100C00001092F8011092F9011092FA011092FB0172
:100C100081E08093FF011092000280E48093010242
:100C200080E18093020280E58093030261E08CE022
:100C30000E944A028091F1018F3F19F061E00E9409
:100C40004A0261E08091F2010E944A02CCEED1E0BA
:100C50009E012C5E31408091FB0184FD0FC084E039
:100C600090E021962817390764F461E08E810E9494
:100C70004A02EECF8FEF80930402A1CF88E090E08C
:100C8000F0CF8BE39DE00197F1F760E08091F001F8
:100C90000E94FE0160E08091F2010E94FE018091BD
:100CA000F1018F3F19F060E00E94FE016091FB01AD
:100CB00064FD45C063E08CEE91E00E945B03CBE4F1
:100CC000D6E4CE010197F1F763E08CEE91E00E944B
:100CD0005B032197F1F763E08CEE91E00E945B03E8
:100CE00083E592E00197F1F762E08CEE91E00E94DB
:100CF0005B036091FB01606240E08CEE91E00E943A
:100D0000880384E08093FC0140E06CE08CEE91E08D
:100D10000E94880340E061E08CEE91E00E9488032D
:100D20008BE39FE10197F1F782E08093FD0140E0C2
:100D300066E08CEE91E0DF91CF910C9488036062C5
:100D400040E08CEE91E00E9488038BE496E40197EA
:100D5000F1F76091FB01606240E08CEE91E00E944F
:100D6000880383E592E00197F1F76091FB016062EF
:100D700040E08CEE91E00E948803BBCF789484B56C
:100D8000826084BD84B5816084BD85B5826085BD87
:100D900085B5816085BD80916E00816080936E0015
:100DA0001092810080918100826080938100809107
:100DB00081008160809381008091800081608093B8
:100DC00080008091B10084608093B1008091B00078
:100DD00081608093B00080917A00846080937A0073
:100DE00080917A00826080937A0080917A0081609D
:100DF00080937A0080917A00806880937A001092C4
:100E0000C100E0913A01F0913B0182E08083E091E2
:100E10003601F09137011082E0913801F0913901EB
:100E20008FEC808310924201E0913E01F0913F01EE
:100E300086E08083E0913C01F0913D0180818061FA
:100E40008083E0913C01F0913D0180818860808346
:100E5000E0913C01F0913D01808180688083E091C8
:100E60003C01F0913D0180818F7D8083809104025F
:100E70008C3008F051C061E089E00E944A02809104
:100E80000402282F30E0F901EE0FFF1FE20FF31FDD
:100E9000E953FE4F9081907C9960908310920502F7
:100EA000109206022CE0622F0E94F509829FB00189
:100EB000112430E020E0AB01420F531FFA01EE0F86
:100EC000FF1FE40FF51FE953FE4F908196FD16C0FA
:100ED0002F5F3F4F2C30310571F781110FC01092F9
:100EE000800082E08093810010928500109284003F
:100EF000B19A80916F00826080936F00E09104024C
:100F00008E2F90E0FC01EE0FFF1FE80FF91FE95351
:100F1000FE4F80818064808361E089E00E944A0204
:100F200061E083E00E944A0261E08DE00E944A0293
:100F300060E083E10E944A0261E08AE00E944A0286
:100F400060E08BE00E944A0244244A9493E0592EC8
:100F5000612C712C23E2E22EF12C39EB832E30E050
:100F6000932E45EAC42E40E0D42E50E0A52E50E04A
:100F7000B52E8EE00E94D80290932901809328011B
:100F80002FEF30E0DC010E94010AA30192010E94D0
:100F90005C08B90189E00E947B0283E10E94D802CB
:100FA000EC012FEF30E0DC010E94010AA301920165
:100FB0000E945C08B9018DE00E947B0260E08AE03B
:100FC0000E94FE0162E070E080E090E00E940F036A
:100FD00061E08AE00E94FE01C7010197F1F760E03D
:100FE0008AE00E94FE01F4016491F6018491E82FE9
:100FF000F0E0EE0FFF1FE057FF4F8591949100E462
:1010000012E42FE030E0462F0E943F056115710584
:101010008105910529F06F5F7F4F8F4F9F4F9F7024
:1010200020912801309129012630310504F584EB07
:1010300090E00E948C0060ED77E080E090E00E94FC
:101040000F0390E080E00E948C0060ED77E080E08C
:1010500090E00E940F03A114B10409F48ACF0E940A
:101060005B01882309F485CF0E94000082CF259779
:101070001CF48AE590E0DDCF0E9469092EEA37E48E
:101080004BE652E40E94BF080E9431096E3171059F
:101090004CF484EB90E00E948C0068EB7BE080E0F5
:1010A00090E0D7CF6E31710529F061E083E00E94B6
:1010B000FE01D1CF60E0FACF052E97FB1EF400941D
:1010C0000E94730857FD07D00E948E0807FC03D0CA
:1010D0004EF40C94730850954095309521953F4FF0
:1010E0004F4F5F4F089590958095709561957F4F14
:1010F0008F4F9F4F08950E94B008A59F900DB49FF9
:10110000900DA49F800D911D11240895B7FF0C949C
:101110007B080E947B08821B930B0895A1E21A2E84
:10112000AA1BBB1BFD010DC0AA1FBB1FEE1FFF1F8B
:10113000A217B307E407F50720F0A21BB30BE40BDB
:10114000F50B661F771F881F991F1A9469F7609522
:101150007095809590959B01AC01BD01CF010895DC
:10116000A29FB001B39FC001A39F700D811D1124E8
:10117000911DB29F700D811D1124911D08950E9433
:10118000D3080C94BB090E94B40958F00E94AD0921
:1011900040F029F45F3F29F00C94A40951110C94FC
:1011A000EF090C94AA090E94CC0968F39923B1F3C2
:1011B000552391F3951B550BBB27AA27621773077D
:1011C000840738F09F5F5F4F220F331F441FAA1F11
:1011D000A9F335D00E2E3AF0E0E832D091505040CD
:1011E000E695001CCAF72BD0FE2F29D0660F771F7B
:1011F000881FBB1F261737074807AB07B0E809F061
:10120000BB0B802DBF01FF2793585F4F3AF09E3FE5
:10121000510578F00C94A4090C94EF095F3FE4F3B6
:10122000983ED4F3869577956795B795F7959F5F28
:10123000C9F7880F911D9695879597F90895E1E074
:10124000660F771F881FBB1F621773078407BA07D3
:1012500020F0621B730B840BBA0BEE1F88F7E0952E
:1012600008950E9438096894B1110C94EF0908950B
:101270000E94D40988F09F5798F0B92F9927B75149
:10128000B0F0E1F0660F771F881F991F1AF0BA952A
:10129000C9F714C0B13091F00E94EE09B1E0089591
:1012A0000C94EE09672F782F8827B85F39F0B93F83
:1012B000CCF3869577956795B395D9F73EF49095DD
:1012C0008095709561957F4F8F4F9F4F0895E8945B
:1012D00009C097FB3EF490958095709561957F4F7E
:1012E0008F4F9F4F9923A9F0F92F96E9BB2793952C
:1012F000F695879577956795B795F111F8CFFAF43C
:10130000BB0F11F460FF1BC06F5F7F4F8F4F9F4F6C
:1013100016C0882311F096E911C0772321F09EE8CA
:10132000872F762F05C0662371F096E8862F70E030
:1013300060E02AF09A95660F771F881FDAF7880F0A
:101340009695879597F9089597F99F6780E870E0DB
:1013500060E008959FEF80EC089500240A9416162B
:10136000170618060906089500240A941216130693
:10137000140605060895092E0394000C11F4882321
:1013800052F0BB0F40F4BF2B11F460FF04C06F5F3D
:101390007F4F8F4F9F4F089557FD9058440F551F13
:1013A00059F05F3F71F04795880F97FB991F61F0E7
:1013B0009F3F79F087950895121613061406551F5E
:1013C000F2CF4695F1DF08C0161617061806991FCA
:1013D000F1CF86957105610508940895E894BB27BF
:1013E00066277727CB0197F90895991B79E004C008
:1013F000991F961708F0961B881F7A95C9F7809554
:1014000008950E94B008B7FF0895821B930B0895BA
:10141000EE0FFF1F0590F491E02D0994F894FFCF93
:10142000000000009101F1001E01DE014F012D01BD
:0E143000410100000000DB03F1004203410314
:00000001FF
